:100000000EC020C01FC01EC01DC01CC01BC01AC017
:1000100019C018C017C016C015C014C013C01124D1
:100020001FBECFE5D2E0DEBFCDBF10E0A0E6B0E05E
:10003000EAECF1E002C005900D92A637B107D9F7BE
:1000400068D0C1C0DDCFC49826EA2A95F1F700C078
:1000500098E080FF0EC0C49A859526EA2A95F1F7AC
:1000600000C09150B1F7C49A86EA8A95F1F700C0B2
:100070000895C498F1CFCF92DF92EF92FF920F9341
:100080001F93CF93DF93CDB7DEB728970FB6F894C1
:10009000DEBF0FBECDBF8C0197FF05C08DE2D3DF61
:1000A000119501951109FE013196F12CE12C6F019A
:1000B0002AE030E08FEFE81AF80AC801B9015CD0F5
:1000C000805D81938B01672BA9F781E0E81AF10825
:1000D00078F428960FB6F894DEBF0FBECDBFDF913F
:1000E000CF911F910F91FF90EF90DF90CF900895E7
:1000F000F601EE0DFF1D8081A6DFE7CFCF93DF93E2
:10010000EC018991811103C0DF91CF9108959BDFAC
:10011000F8CFBC9AC49A87EA91E60197F1F700C03C
:10012000000017E80FEC16B907B987E893E10197CB
:10013000F1F700C00000369A3699FECF369A36990C
:10014000FECFC4B1D5B180E690E0D8DFCE0193DF19
:1001500086E690E0D3DFCE01845091408CDF80E7CB
:1001600090E0CCDF9FE32DE083E091502040804081
:10017000E1F700C00000D7CF97FB072E16F40094DC
:1001800006D077FD08D00BD007FC05D03EF4909543
:1001900081959F4F0895709561957F4F0895AA1B93
:1001A000BB1B51E107C0AA1FBB1FA617B70710F062
:1001B000A61BB70B881F991F5A95A9F78095909594
:0A01C000BC01CD010895F894FFCFB3
:1001CA005241573A2000207C2054454D503A200095
:0601DA0020430D0A0000A5
:00000001FF
